{
  "contractName": "TreasureLocation",
  "abi": [
    {
      "inputs": [],
      "stateMutability": "nonpayable",
      "type": "constructor"
    },
    {
      "inputs": [
        {
          "internalType": "uint256",
          "name": "_location",
          "type": "uint256"
        }
      ],
      "name": "setTreasureLocation1",
      "outputs": [],
      "stateMutability": "nonpayable",
      "type": "function"
    },
    {
      "inputs": [
        {
          "internalType": "uint256",
          "name": "_location",
          "type": "uint256"
        }
      ],
      "name": "setTreasureLocation2",
      "outputs": [],
      "stateMutability": "nonpayable",
      "type": "function"
    }
  ],
  "bytecode": "0x608060405234801561000f575f80fd5b50335f806101000a81548173ffffffffffffffffffffffffffffffffffffffff021916908373ffffffffffffffffffffffffffffffffffffffff1602179055506102d48061005c5f395ff3fe608060405234801561000f575f80fd5b5060043610610034575f3560e01c80631348c68014610038578063a29c5bf714610054575b5f80fd5b610052600480360381019061004d91906101d5565b610070565b005b61006e600480360381019061006991906101d5565b610107565b005b806001819055503373ffffffffffffffffffffffffffffffffffffffff165f8054906101000a900473ffffffffffffffffffffffffffffffffffffffff1673ffffffffffffffffffffffffffffffffffffffff1614610104576040517f08c379a00000000000000000000000000000000000000000000000000000000081526004016100fb90610280565b60405180910390fd5b50565b3373ffffffffffffffffffffffffffffffffffffffff165f8054906101000a900473ffffffffffffffffffffffffffffffffffffffff1673ffffffffffffffffffffffffffffffffffffffff1614610194576040517f08c379a000000000000000000000000000000000000000000000000000000000815260040161018b90610280565b60405180910390fd5b8060018190555050565b5f80fd5b5f819050919050565b6101b4816101a2565b81146101be575f80fd5b50565b5f813590506101cf816101ab565b92915050565b5f602082840312156101ea576101e961019e565b5b5f6101f7848285016101c1565b91505092915050565b5f82825260208201905092915050565b7f596f752063616e6e6f742061737369676e20616e79206b696e64206f66206e655f8201527f77206c6f636174696f6e00000000000000000000000000000000000000000000602082015250565b5f61026a602a83610200565b915061027582610210565b604082019050919050565b5f6020820190508181035f8301526102978161025e565b905091905056fea264697066735822122072aba63c89e2b12eb7e43b16f9e68802fec9587ed8feb69284f5f1dbd509d6b664736f6c63430008150033",
  "immutableReferences": {},
  "source": "// SPDX-License-Identifier: MIT\r\npragma solidity ^0.8.7;\r\n\r\ncontract TreasureLocation {\r\n    address gameSetter;\r\n    uint256 location;\r\n\r\n    constructor() {\r\n        gameSetter = msg.sender;\r\n    }\r\n\r\n    function setTreasureLocation1(uint256 _location) external {\r\n        require(\r\n            gameSetter == msg.sender,\r\n            \"You cannot assign any kind of new location\"\r\n        );\r\n        location = _location;\r\n    }\r\n\r\n    function setTreasureLocation2(uint256 _location) external {\r\n        location = _location;\r\n        require(\r\n            gameSetter == msg.sender,\r\n            \"You cannot assign any kind of new location\"\r\n        );\r\n    }\r\n}\r\n",
  "sourcePath": "C:\\Users\\Ashis\\Documents\\Projects\\Blockchain Projects\\nft truffle\\contracts\\TreasureLocation.sol",
  "compiler": {
    "name": "solc",
    "version": "0.8.21+commit.d9974bed.Emscripten.clang"
  },
  "schemaVersion": "3.4.16",
  "updatedAt": "2024-04-24T07:22:55.471Z",
  "networkType": "ethereum",
  "devdoc": {
    "kind": "dev",
    "methods": {},
    "version": 1
  },
  "userdoc": {
    "kind": "user",
    "methods": {},
    "version": 1
  }
}